:1000000003201F2001288316003086000030850061
:10001000811281118110831207309F000030A100EE
:100020000030A2000030A3002130A4000030A50061
:10003000003086000130A6008030A00008000B1DB3
:100040001F28863081000B112B20A00B1F28803029
:10005000A0003D2008008601850103102619031425
:10006000A60D0730A6052608860026182108A61822
:100070002208261923088500080024082507840083
:10008000800A02302502031951200A300002031DA4
:1000900008008001A50A03302502031D3D20A501AB
:1000A000080002300002031D08000A30800008002A
:02400E00583F19
:00000001FF
