:0400000012200128A1
:10000800F000030EF100031383120B1843200B19A1
:100018003220710E8300F00E700E090083168112D3
:100028008111011481140115E0308500F03086003B
:10003800831207309F001030A1000030850006149D
:1000480086107D30A000833081000B118B160B10B9
:100058008B158B17080003308606080003308606C8
:10006800833081000B11A00B0800A1122118A116E2
:10007800210CA100103A85007D30A0000800060878
:10008800703903190800061A0630861A0430061B50
:1000980002300618013E8316A0000108F839200432
:0A00A8008100831286080B10080087
:02400E00583F19
:00000001FF
